{
  "contractName": "satoshiturk",
  "abi": [
    {
      "inputs": [],
      "stateMutability": "nonpayable",
      "type": "constructor"
    },
    {
      "anonymous": false,
      "inputs": [
        {
          "indexed": true,
          "internalType": "address",
          "name": "adres",
          "type": "address"
        },
        {
          "indexed": false,
          "internalType": "uint256",
          "name": "amount",
          "type": "uint256"
        }
      ],
      "name": "Kazanan",
      "type": "event"
    },
    {
      "anonymous": false,
      "inputs": [
        {
          "indexed": true,
          "internalType": "address",
          "name": "adres",
          "type": "address"
        },
        {
          "indexed": false,
          "internalType": "uint256",
          "name": "amount",
          "type": "uint256"
        }
      ],
      "name": "Yatirma",
      "type": "event"
    },
    {
      "stateMutability": "payable",
      "type": "fallback"
    },
    {
      "inputs": [],
      "name": "limit",
      "outputs": [
        {
          "internalType": "uint256",
          "name": "",
          "type": "uint256"
        }
      ],
      "stateMutability": "view",
      "type": "function"
    },
    {
      "inputs": [
        {
          "internalType": "uint256",
          "name": "",
          "type": "uint256"
        }
      ],
      "name": "players",
      "outputs": [
        {
          "internalType": "address",
          "name": "player",
          "type": "address"
        },
        {
          "internalType": "uint256",
          "name": "amount",
          "type": "uint256"
        }
      ],
      "stateMutability": "view",
      "type": "function"
    },
    {
      "inputs": [],
      "name": "totalAmount",
      "outputs": [
        {
          "internalType": "uint256",
          "name": "",
          "type": "uint256"
        }
      ],
      "stateMutability": "view",
      "type": "function"
    },
    {
      "inputs": [],
      "name": "totalInvest",
      "outputs": [
        {
          "internalType": "uint256",
          "name": "",
          "type": "uint256"
        }
      ],
      "stateMutability": "view",
      "type": "function"
    },
    {
      "inputs": [],
      "name": "yatirmalimiti",
      "outputs": [
        {
          "internalType": "uint256",
          "name": "",
          "type": "uint256"
        }
      ],
      "stateMutability": "view",
      "type": "function"
    },
    {
      "stateMutability": "payable",
      "type": "receive"
    },
    {
      "inputs": [],
      "name": "deposit",
      "outputs": [],
      "stateMutability": "payable",
      "type": "function"
    },
    {
      "inputs": [
        {
          "internalType": "uint256",
          "name": "_limit",
          "type": "uint256"
        }
      ],
      "name": "setLimit",
      "outputs": [],
      "stateMutability": "nonpayable",
      "type": "function"
    },
    {
      "inputs": [
        {
          "internalType": "uint256",
          "name": "_limit",
          "type": "uint256"
        }
      ],
      "name": "setYatirmaLimiti",
      "outputs": [],
      "stateMutability": "nonpayable",
      "type": "function"
    },
    {
      "inputs": [],
      "name": "getLimit",
      "outputs": [
        {
          "internalType": "uint256",
          "name": "",
          "type": "uint256"
        }
      ],
      "stateMutability": "view",
      "type": "function"
    },
    {
      "inputs": [],
      "name": "gettotalAmount",
      "outputs": [
        {
          "internalType": "uint256",
          "name": "",
          "type": "uint256"
        }
      ],
      "stateMutability": "view",
      "type": "function"
    },
    {
      "inputs": [],
      "name": "gettotalInvest",
      "outputs": [
        {
          "internalType": "uint256",
          "name": "",
          "type": "uint256"
        }
      ],
      "stateMutability": "view",
      "type": "function"
    },
    {
      "inputs": [],
      "name": "getyatirmalimiti",
      "outputs": [
        {
          "internalType": "uint256",
          "name": "",
          "type": "uint256"
        }
      ],
      "stateMutability": "view",
      "type": "function"
    }
  ],
  "bytecode": "0x608060405234801561001057600080fd5b50336000806101000a81548173ffffffffffffffffffffffffffffffffffffffff021916908373ffffffffffffffffffffffffffffffffffffffff1602179055506002600481905550670de0b6b3a7640000600581905550610e09806100776000396000f3fe6080604052600436106100ab5760003560e01c8063a4d66daf11610064578063a4d66daf14610354578063b295a00e1461037f578063cb5b8271146103aa578063d0e30db0146103d5578063f4de8d75146103df578063f71d96cb1461040a57610183565b80631a39d8ef1461025657806327ea6f2b14610281578063616b40e3146102aa5780637deb6e60146102d55780637fac697314610300578063837256461461032957610183565b366101835760008054906101000a900473ffffffffffffffffffffffffffffffffffffffff1673ffffffffffffffffffffffffffffffffffffffff163373ffffffffffffffffffffffffffffffffffffffff161461013e576040517f08c379a0000000000000000000000000000000000000000000000000000000008152600401610135906109dd565b60405180910390fd5b60003403610181576040517f08c379a000000000000000000000000000000000000000000000000000000000815260040161017890610a49565b60405180910390fd5b005b60008054906101000a900473ffffffffffffffffffffffffffffffffffffffff1673ffffffffffffffffffffffffffffffffffffffff163373ffffffffffffffffffffffffffffffffffffffff1614610211576040517f08c379a0000000000000000000000000000000000000000000000000000000008152600401610208906109dd565b60405180910390fd5b60003403610254576040517f08c379a000000000000000000000000000000000000000000000000000000000815260040161024b90610a49565b60405180910390fd5b005b34801561026257600080fd5b5061026b610448565b6040516102789190610a82565b60405180910390f35b34801561028d57600080fd5b506102a860048036038101906102a39190610ace565b61044e565b005b3480156102b657600080fd5b506102bf6104e6565b6040516102cc9190610a82565b60405180910390f35b3480156102e157600080fd5b506102ea6104ec565b6040516102f79190610a82565b60405180910390f35b34801561030c57600080fd5b5061032760048036038101906103229190610ace565b6104f6565b005b34801561033557600080fd5b5061033e61058e565b60405161034b9190610a82565b60405180910390f35b34801561036057600080fd5b50610369610594565b6040516103769190610a82565b60405180910390f35b34801561038b57600080fd5b5061039461059a565b6040516103a19190610a82565b60405180910390f35b3480156103b657600080fd5b506103bf6105a4565b6040516103cc9190610a82565b60405180910390f35b6103dd6105ae565b005b3480156103eb57600080fd5b506103f46107d8565b6040516104019190610a82565b60405180910390f35b34801561041657600080fd5b50610431600480360381019061042c9190610ace565b6107e2565b60405161043f929190610b3c565b60405180910390f35b60025481565b60008054906101000a900473ffffffffffffffffffffffffffffffffffffffff1673ffffffffffffffffffffffffffffffffffffffff163373ffffffffffffffffffffffffffffffffffffffff16146104dc576040517f08c379a00000000000000000000000000000000000000000000000000000000081526004016104d3906109dd565b60405180910390fd5b8060048190555050565b60035481565b6000600554905090565b60008054906101000a900473ffffffffffffffffffffffffffffffffffffffff1673ffffffffffffffffffffffffffffffffffffffff163373ffffffffffffffffffffffffffffffffffffffff1614610584576040517f08c379a000000000000000000000000000000000000000000000000000000000815260040161057b906109dd565b60405180910390fd5b8060058190555050565b60055481565b60045481565b6000600454905090565b6000600254905090565b6005543410156105f3576040517f08c379a00000000000000000000000000000000000000000000000000000000081526004016105ea90610bb1565b60405180910390fd5b600073ffffffffffffffffffffffffffffffffffffffff163373ffffffffffffffffffffffffffffffffffffffff160361062c57600080fd5b600160405180604001604052803373ffffffffffffffffffffffffffffffffffffffff16815260200134815250908060018154018082558091505060019003906000526020600020906002020160009091909190915060008201518160000160006101000a81548173ffffffffffffffffffffffffffffffffffffffff021916908373ffffffffffffffffffffffffffffffffffffffff16021790555060208201518160010155505034600260008282546106e79190610c00565b925050819055506003600081548092919061070190610c56565b91905055503373ffffffffffffffffffffffffffffffffffffffff167fdfafabe95d86478a060aa08858efe43933f6458c9af853f4e43c228f7715d1763460405161074c9190610a82565b60405180910390a2600454600354036107d6576107b7600161076f600454610836565b815481106107805761077f610c9e565b5b906000526020600020906002020160000160009054906101000a900473ffffffffffffffffffffffffffffffffffffffff16610878565b600160006107c59190610916565b600060028190555060006003819055505b565b6000600354905090565b600181815481106107f257600080fd5b90600052602060002090600202016000915090508060000160009054906101000a900473ffffffffffffffffffffffffffffffffffffffff16908060010154905082565b60008142443360405160200161084e93929190610d36565b6040516020818303038152906040528051906020012060001c6108719190610da2565b9050919050565b60004790508173ffffffffffffffffffffffffffffffffffffffff166108fc829081150290604051600060405180830381858888f193505050501580156108c3573d6000803e3d6000fd5b508173ffffffffffffffffffffffffffffffffffffffff167fab7312529ab7a48fac28984d6aa2392fc9ddd55116d7c878ccecffcd31ee8df68260405161090a9190610a82565b60405180910390a25050565b5080546000825560020290600052602060002090810190610937919061093a565b50565b5b8082111561097c57600080820160006101000a81549073ffffffffffffffffffffffffffffffffffffffff021916905560018201600090555060020161093b565b5090565b600082825260208201905092915050565b7f536164656365207965746b696c692069736c656d207961706162696c69720000600082015250565b60006109c7601e83610980565b91506109d282610991565b602082019050919050565b600060208201905081810360008301526109f6816109ba565b9050919050565b7f5965746b6973697a204b756c6c616e696d000000000000000000000000000000600082015250565b6000610a33601183610980565b9150610a3e826109fd565b602082019050919050565b60006020820190508181036000830152610a6281610a26565b9050919050565b6000819050919050565b610a7c81610a69565b82525050565b6000602082019050610a976000830184610a73565b92915050565b600080fd5b610aab81610a69565b8114610ab657600080fd5b50565b600081359050610ac881610aa2565b92915050565b600060208284031215610ae457610ae3610a9d565b5b6000610af284828501610ab9565b91505092915050565b600073ffffffffffffffffffffffffffffffffffffffff82169050919050565b6000610b2682610afb565b9050919050565b610b3681610b1b565b82525050565b6000604082019050610b516000830185610b2d565b610b5e6020830184610a73565b9392505050565b7f4d696e696d756d203120457468657265756d20766520424e4200000000000000600082015250565b6000610b9b601983610980565b9150610ba682610b65565b602082019050919050565b60006020820190508181036000830152610bca81610b8e565b9050919050565b7f4e487b7100000000000000000000000000000000000000000000000000000000600052601160045260246000fd5b6000610c0b82610a69565b9150610c1683610a69565b9250827fffffffffffffffffffffffffffffffffffffffffffffffffffffffffffffffff03821115610c4b57610c4a610bd1565b5b828201905092915050565b6000610c6182610a69565b91507fffffffffffffffffffffffffffffffffffffffffffffffffffffffffffffffff8203610c9357610c92610bd1565b5b600182019050919050565b7f4e487b7100000000000000000000000000000000000000000000000000000000600052603260045260246000fd5b6000819050919050565b610ce8610ce382610a69565b610ccd565b82525050565b60008160601b9050919050565b6000610d0682610cee565b9050919050565b6000610d1882610cfb565b9050919050565b610d30610d2b82610b1b565b610d0d565b82525050565b6000610d428286610cd7565b602082019150610d528285610cd7565b602082019150610d628284610d1f565b601482019150819050949350505050565b7f4e487b7100000000000000000000000000000000000000000000000000000000600052601260045260246000fd5b6000610dad82610a69565b9150610db883610a69565b925082610dc857610dc7610d73565b5b82820690509291505056fea264697066735822122017036e7942d4e9133c956167f1ddfe8abb21ddf2747590553a270a635d524f9064736f6c634300080d0033",
  "immutableReferences": {},
  "source": "// SPDX-License-Identifier: GPL-3.0\n\npragma solidity ^0.8.0;\n\ncontract satoshiturk {\n  address owner;\n\n  struct Player {\n    address player;\n    uint    amount;\n  }\n\n  Player[] public players;\n\n  uint public totalAmount;\n  uint public totalInvest;\n  uint public limit;\n  uint public yatirmalimiti;\n\n  event Yatirma(address indexed adres, uint amount);\n  event Kazanan(address indexed adres, uint amount);\n\n\n  constructor (){\n    owner = msg.sender;\n    limit = 2;\n    yatirmalimiti  = 1*10**18;\n\n  }\n\n  fallback () external payable onlyOwner{\n    require(msg.value !=0,\"Yetkisiz Kullanim\");\n  }\n\n  receive() external payable onlyOwner{\n    require(msg.value !=0,\"Yetkisiz Kullanim\");\n  }\n\n  modifier onlyOwner(){\n    require(msg.sender == owner,\"Sadece yetkili islem yapabilir\");\n    _;\n  }\n\n  function random(uint number) private view returns (uint){\n    return uint(keccak256(abi.encodePacked(block.timestamp,block.difficulty,msg.sender))) % number;\n  }\n\n  function deposit () payable public {\n    require(msg.value >= yatirmalimiti,\"Minimum 1 Ethereum ve BNB\");\n    require(msg.sender != address(0));\n\n    players.push(Player({\n      player : msg.sender,\n      amount  : msg.value\n    }));\n\n    totalAmount += msg.value;\n    totalInvest++;\n\n    emit Yatirma(msg.sender,msg.value);\n\n\n    if(totalInvest == limit){\n      winner(players[random(limit)].player);\n      delete players;\n      totalAmount = 0;\n      totalInvest = 0;\n    }\n  }\n\n  function winner (address _addres) internal {\n    uint balance = address(this).balance;\n    payable(_addres).transfer(balance);\n    emit Kazanan(_addres,balance);\n  }\n\n  function setLimit (uint _limit) public onlyOwner {\n    limit = _limit;\n  }\n\n  function setYatirmaLimiti (uint _limit) public onlyOwner {\n    yatirmalimiti = _limit;\n  }\n\n  function getLimit() public view returns(uint){\n    return limit;\n  }\n\n  function gettotalAmount() public view returns(uint){\n    return totalAmount;\n  }\n\n  function gettotalInvest() public view returns(uint){\n    return totalInvest;\n  }\n\n  function getyatirmalimiti() public view returns(uint){\n    return yatirmalimiti;\n  }\n}\n",
  "sourcePath": "C:\\Users\\Eitim\\Desktop\\satoshiturk\\contracts\\satoshiturk.sol",
  "compiler": {
    "name": "solc",
    "version": "0.8.13+commit.abaa5c0e.Emscripten.clang"
  },
  "schemaVersion": "3.4.7",
  "updatedAt": "2022-04-18T01:27:45.995Z",
  "devdoc": {
    "kind": "dev",
    "methods": {},
    "version": 1
  },
  "userdoc": {
    "kind": "user",
    "methods": {},
    "version": 1
  }
}