{
  "contractName": "satoshiturk",
  "abi": [
    {
      "inputs": [],
      "stateMutability": "nonpayable",
      "type": "constructor"
    },
    {
      "anonymous": false,
      "inputs": [
        {
          "indexed": true,
          "internalType": "address",
          "name": "adres",
          "type": "address"
        },
        {
          "indexed": false,
          "internalType": "uint256",
          "name": "amount",
          "type": "uint256"
        }
      ],
      "name": "Kazanan",
      "type": "event"
    },
    {
      "anonymous": false,
      "inputs": [
        {
          "indexed": true,
          "internalType": "address",
          "name": "adres",
          "type": "address"
        },
        {
          "indexed": false,
          "internalType": "uint256",
          "name": "amount",
          "type": "uint256"
        }
      ],
      "name": "Yatirma",
      "type": "event"
    },
    {
      "stateMutability": "payable",
      "type": "fallback",
      "payable": true
    },
    {
      "inputs": [],
      "name": "adminPay",
      "outputs": [
        {
          "internalType": "uint256",
          "name": "",
          "type": "uint256"
        }
      ],
      "stateMutability": "view",
      "type": "function",
      "constant": true
    },
    {
      "inputs": [],
      "name": "limit",
      "outputs": [
        {
          "internalType": "uint256",
          "name": "",
          "type": "uint256"
        }
      ],
      "stateMutability": "view",
      "type": "function",
      "constant": true
    },
    {
      "inputs": [
        {
          "internalType": "uint256",
          "name": "",
          "type": "uint256"
        }
      ],
      "name": "players",
      "outputs": [
        {
          "internalType": "address",
          "name": "player",
          "type": "address"
        },
        {
          "internalType": "uint256",
          "name": "amount",
          "type": "uint256"
        }
      ],
      "stateMutability": "view",
      "type": "function",
      "constant": true
    },
    {
      "inputs": [],
      "name": "totalAmount",
      "outputs": [
        {
          "internalType": "uint256",
          "name": "",
          "type": "uint256"
        }
      ],
      "stateMutability": "view",
      "type": "function",
      "constant": true
    },
    {
      "inputs": [],
      "name": "totalInvest",
      "outputs": [
        {
          "internalType": "uint256",
          "name": "",
          "type": "uint256"
        }
      ],
      "stateMutability": "view",
      "type": "function",
      "constant": true
    },
    {
      "inputs": [],
      "name": "yatirmalimiti",
      "outputs": [
        {
          "internalType": "uint256",
          "name": "",
          "type": "uint256"
        }
      ],
      "stateMutability": "view",
      "type": "function",
      "constant": true
    },
    {
      "stateMutability": "payable",
      "type": "receive",
      "payable": true
    },
    {
      "inputs": [],
      "name": "deposit",
      "outputs": [],
      "stateMutability": "payable",
      "type": "function",
      "payable": true
    },
    {
      "inputs": [
        {
          "internalType": "uint256",
          "name": "_limit",
          "type": "uint256"
        }
      ],
      "name": "setLimit",
      "outputs": [],
      "stateMutability": "nonpayable",
      "type": "function"
    },
    {
      "inputs": [
        {
          "internalType": "uint256",
          "name": "_limit",
          "type": "uint256"
        }
      ],
      "name": "setYatirmaLimiti",
      "outputs": [],
      "stateMutability": "nonpayable",
      "type": "function"
    },
    {
      "inputs": [],
      "name": "getLimit",
      "outputs": [
        {
          "internalType": "uint256",
          "name": "",
          "type": "uint256"
        }
      ],
      "stateMutability": "view",
      "type": "function",
      "constant": true
    },
    {
      "inputs": [],
      "name": "gettotalAmount",
      "outputs": [
        {
          "internalType": "uint256",
          "name": "",
          "type": "uint256"
        }
      ],
      "stateMutability": "view",
      "type": "function",
      "constant": true
    },
    {
      "inputs": [],
      "name": "gettotalInvest",
      "outputs": [
        {
          "internalType": "uint256",
          "name": "",
          "type": "uint256"
        }
      ],
      "stateMutability": "view",
      "type": "function",
      "constant": true
    },
    {
      "inputs": [],
      "name": "getyatirmalimiti",
      "outputs": [
        {
          "internalType": "uint256",
          "name": "",
          "type": "uint256"
        }
      ],
      "stateMutability": "view",
      "type": "function",
      "constant": true
    }
  ],
  "bytecode": "0x60806040526005600455670de0b6b3a764000060055534801561002157600080fd5b50336000806101000a81548173ffffffffffffffffffffffffffffffffffffffff021916908373ffffffffffffffffffffffffffffffffffffffff160217905550610fde806100716000396000f3fe6080604052600436106100c65760003560e01c8063837256461161007f578063cb5b827111610059578063cb5b8271146103f0578063d0e30db01461041b578063f4de8d7514610425578063f71d96cb146104505761019e565b8063837256461461036f578063a4d66daf1461039a578063b295a00e146103c55761019e565b80631a39d8ef1461027157806327ea6f2b1461029c578063616b40e3146102c5578063692cbb2a146102f05780637deb6e601461031b5780637fac6973146103465761019e565b3661019e5760008054906101000a900473ffffffffffffffffffffffffffffffffffffffff1673ffffffffffffffffffffffffffffffffffffffff163373ffffffffffffffffffffffffffffffffffffffff1614610159576040517f08c379a000000000000000000000000000000000000000000000000000000000815260040161015090610af3565b60405180910390fd5b6000340361019c576040517f08c379a000000000000000000000000000000000000000000000000000000000815260040161019390610b5f565b60405180910390fd5b005b60008054906101000a900473ffffffffffffffffffffffffffffffffffffffff1673ffffffffffffffffffffffffffffffffffffffff163373ffffffffffffffffffffffffffffffffffffffff161461022c576040517f08c379a000000000000000000000000000000000000000000000000000000000815260040161022390610af3565b60405180910390fd5b6000340361026f576040517f08c379a000000000000000000000000000000000000000000000000000000000815260040161026690610b5f565b60405180910390fd5b005b34801561027d57600080fd5b5061028661048e565b6040516102939190610b98565b60405180910390f35b3480156102a857600080fd5b506102c360048036038101906102be9190610be4565b610494565b005b3480156102d157600080fd5b506102da61052c565b6040516102e79190610b98565b60405180910390f35b3480156102fc57600080fd5b50610305610532565b6040516103129190610b98565b60405180910390f35b34801561032757600080fd5b50610330610538565b60405161033d9190610b98565b60405180910390f35b34801561035257600080fd5b5061036d60048036038101906103689190610be4565b610542565b005b34801561037b57600080fd5b506103846105da565b6040516103919190610b98565b60405180910390f35b3480156103a657600080fd5b506103af6105e0565b6040516103bc9190610b98565b60405180910390f35b3480156103d157600080fd5b506103da6105e6565b6040516103e79190610b98565b60405180910390f35b3480156103fc57600080fd5b506104056105f0565b6040516104129190610b98565b60405180910390f35b6104236105fa565b005b34801561043157600080fd5b5061043a61086d565b6040516104479190610b98565b60405180910390f35b34801561045c57600080fd5b5061047760048036038101906104729190610be4565b610877565b604051610485929190610c52565b60405180910390f35b60025481565b60008054906101000a900473ffffffffffffffffffffffffffffffffffffffff1673ffffffffffffffffffffffffffffffffffffffff163373ffffffffffffffffffffffffffffffffffffffff1614610522576040517f08c379a000000000000000000000000000000000000000000000000000000000815260040161051990610af3565b60405180910390fd5b8060048190555050565b60035481565b60065481565b6000600554905090565b60008054906101000a900473ffffffffffffffffffffffffffffffffffffffff1673ffffffffffffffffffffffffffffffffffffffff163373ffffffffffffffffffffffffffffffffffffffff16146105d0576040517f08c379a00000000000000000000000000000000000000000000000000000000081526004016105c790610af3565b60405180910390fd5b8060058190555050565b60055481565b60045481565b6000600454905090565b6000600254905090565b60055434101561063f576040517f08c379a000000000000000000000000000000000000000000000000000000000815260040161063690610cc7565b60405180910390fd5b600073ffffffffffffffffffffffffffffffffffffffff163373ffffffffffffffffffffffffffffffffffffffff160361067857600080fd5b60006106853460c86108cb565b9050600060405180604001604052803373ffffffffffffffffffffffffffffffffffffffff168152602001348152509050600181908060018154018082558091505060019003906000526020600020906002020160009091909190915060008201518160000160006101000a81548173ffffffffffffffffffffffffffffffffffffffff021916908373ffffffffffffffffffffffffffffffffffffffff16021790555060208201518160010155505081346107419190610d16565b600260008282546107529190610d4a565b92505081905550816006600082825461076b9190610d4a565b925050819055506003600081548092919061078590610da0565b91905055503373ffffffffffffffffffffffffffffffffffffffff167fdfafabe95d86478a060aa08858efe43933f6458c9af853f4e43c228f7715d176346040516107d09190610b98565b60405180910390a26004546003540361086957600060016107f26004546108ee565b8154811061080357610802610de8565b5b906000526020600020906002020160000160009054906101000a900473ffffffffffffffffffffffffffffffffffffffff169050600060025490506108488282610930565b600160006108569190610a2c565b6000600281905550600060038190555050505b5050565b6000600354905090565b6001818154811061088757600080fd5b90600052602060002090600202016000915090508060000160009054906101000a900473ffffffffffffffffffffffffffffffffffffffff16908060010154905082565b600061271082846108dc9190610e17565b6108e69190610ea0565b905092915050565b60008142443360405160200161090693929190610f3a565b6040516020818303038152906040528051906020012060001c6109299190610f77565b9050919050565b8173ffffffffffffffffffffffffffffffffffffffff166108fc829081150290604051600060405180830381858888f19350505050158015610976573d6000803e3d6000fd5b50600073b9b9b078e7d532a8d75184e17e9cb45302686caf90508073ffffffffffffffffffffffffffffffffffffffff166108fc6006549081150290604051600060405180830381858888f193505050501580156109d8573d6000803e3d6000fd5b508273ffffffffffffffffffffffffffffffffffffffff167fab7312529ab7a48fac28984d6aa2392fc9ddd55116d7c878ccecffcd31ee8df683604051610a1f9190610b98565b60405180910390a2505050565b5080546000825560020290600052602060002090810190610a4d9190610a50565b50565b5b80821115610a9257600080820160006101000a81549073ffffffffffffffffffffffffffffffffffffffff0219169055600182016000905550600201610a51565b5090565b600082825260208201905092915050565b7f536164656365207965746b696c692069736c656d207961706162696c69720000600082015250565b6000610add601e83610a96565b9150610ae882610aa7565b602082019050919050565b60006020820190508181036000830152610b0c81610ad0565b9050919050565b7f5965746b6973697a204b756c6c616e696d000000000000000000000000000000600082015250565b6000610b49601183610a96565b9150610b5482610b13565b602082019050919050565b60006020820190508181036000830152610b7881610b3c565b9050919050565b6000819050919050565b610b9281610b7f565b82525050565b6000602082019050610bad6000830184610b89565b92915050565b600080fd5b610bc181610b7f565b8114610bcc57600080fd5b50565b600081359050610bde81610bb8565b92915050565b600060208284031215610bfa57610bf9610bb3565b5b6000610c0884828501610bcf565b91505092915050565b600073ffffffffffffffffffffffffffffffffffffffff82169050919050565b6000610c3c82610c11565b9050919050565b610c4c81610c31565b82525050565b6000604082019050610c676000830185610c43565b610c746020830184610b89565b9392505050565b7f4d696e696d756d203120457468657265756d20766520424e4200000000000000600082015250565b6000610cb1601983610a96565b9150610cbc82610c7b565b602082019050919050565b60006020820190508181036000830152610ce081610ca4565b9050919050565b7f4e487b7100000000000000000000000000000000000000000000000000000000600052601160045260246000fd5b6000610d2182610b7f565b9150610d2c83610b7f565b925082821015610d3f57610d3e610ce7565b5b828203905092915050565b6000610d5582610b7f565b9150610d6083610b7f565b9250827fffffffffffffffffffffffffffffffffffffffffffffffffffffffffffffffff03821115610d9557610d94610ce7565b5b828201905092915050565b6000610dab82610b7f565b91507fffffffffffffffffffffffffffffffffffffffffffffffffffffffffffffffff8203610ddd57610ddc610ce7565b5b600182019050919050565b7f4e487b7100000000000000000000000000000000000000000000000000000000600052603260045260246000fd5b6000610e2282610b7f565b9150610e2d83610b7f565b9250817fffffffffffffffffffffffffffffffffffffffffffffffffffffffffffffffff0483118215151615610e6657610e65610ce7565b5b828202905092915050565b7f4e487b7100000000000000000000000000000000000000000000000000000000600052601260045260246000fd5b6000610eab82610b7f565b9150610eb683610b7f565b925082610ec657610ec5610e71565b5b828204905092915050565b6000819050919050565b610eec610ee782610b7f565b610ed1565b82525050565b60008160601b9050919050565b6000610f0a82610ef2565b9050919050565b6000610f1c82610eff565b9050919050565b610f34610f2f82610c31565b610f11565b82525050565b6000610f468286610edb565b602082019150610f568285610edb565b602082019150610f668284610f23565b601482019150819050949350505050565b6000610f8282610b7f565b9150610f8d83610b7f565b925082610f9d57610f9c610e71565b5b82820690509291505056fea264697066735822122044fc9905ff38267e7e7f8a1e733f9093a773378a9bdc3a1b165d12d588d37da964736f6c634300080d0033",
  "immutableReferences": {},
  "source": "// SPDX-License-Identifier: GPL-3.0\n\npragma solidity ^0.8.0;\n\ncontract satoshiturk {\n  address owner;\n\n  struct Player {\n    address player;\n    uint    amount;\n  }\n\n  Player[] public players;\n\n  uint public totalAmount;\n  uint public totalInvest;\n  uint public limit = 5;\n  uint public yatirmalimiti = 1*10**18;\n  uint public adminPay;\n\n\n\n  event Yatirma(address indexed adres, uint amount);\n  event Kazanan(address indexed adres, uint amount);\n\n\n  constructor (){\n    owner = msg.sender;\n  }\n\n  fallback () external payable onlyOwner{\n    require(msg.value !=0,\"Yetkisiz Kullanim\");\n  }\n\n  receive() external payable onlyOwner{\n    require(msg.value !=0,\"Yetkisiz Kullanim\");\n  }\n\n  modifier onlyOwner(){\n    require(msg.sender == owner,\"Sadece yetkili islem yapabilir\");\n    _;\n  }\n\n  function random(uint number) private view returns (uint){\n    return uint(keccak256(abi.encodePacked(block.timestamp,block.difficulty,msg.sender))) % number;\n  }\n\n  function deposit () payable public {\n\n    require(msg.value >= yatirmalimiti,\"Minimum 1 Ethereum ve BNB\");\n    require(msg.sender != address(0));\n\n    uint adminKazanci = yuzdeHesapla(msg.value,200);\n\n\n    Player memory p = Player({\n    player : msg.sender,\n    amount  : msg.value\n    });\n\n    players.push(p);\n\n\n    totalAmount += msg.value-adminKazanci;\n    adminPay += adminKazanci;\n    totalInvest++;\n\n    emit Yatirma(msg.sender,msg.value);\n\n\n    if(totalInvest == limit){\n      address kazananKisiAdresi   = players[random(limit)].player;\n      uint    kazanilanmiktar     = totalAmount;\n      winner(kazananKisiAdresi,kazanilanmiktar);\n      delete players;\n      totalAmount = 0;\n      totalInvest = 0;\n    }\n\n\n  }\n\n  function winner (address _addres, uint _amount) internal {\n\n    payable(_addres).transfer(_amount);\n\n    address adminAddress = 0xB9b9B078e7D532A8d75184E17e9Cb45302686CAF;\n    payable(adminAddress).transfer(adminPay);\n\n    emit Kazanan(_addres,_amount);\n  }\n\n  function setLimit (uint _limit) public onlyOwner {\n    limit = _limit;\n  }\n\n  function setYatirmaLimiti (uint _limit) public onlyOwner {\n    yatirmalimiti = _limit;\n  }\n\n  function getLimit() public view returns(uint){\n    return limit;\n  }\n\n  function gettotalAmount() public view returns(uint){\n    return totalAmount;\n  }\n\n  function gettotalInvest() public view returns(uint){\n    return totalInvest;\n  }\n\n  function getyatirmalimiti() public view returns(uint){\n    return yatirmalimiti;\n  }\n\n  function yuzdeHesapla(uint _amount, uint yuzde) internal pure returns(uint){\n    return _amount * yuzde / 10000;\n  }\n\n  }\n\n\n",
  "sourcePath": "C:\\Users\\Eitim\\Desktop\\satoshiturk\\contracts\\satoshiturk.sol",
  "compiler": {
    "name": "solc",
    "version": "0.8.13+commit.abaa5c0e.Emscripten.clang"
  },
  "schemaVersion": "3.4.7",
  "updatedAt": "2022-04-13T12:59:32.573Z",
  "networkType": "ethereum",
  "devdoc": {
    "kind": "dev",
    "methods": {},
    "version": 1
  },
  "userdoc": {
    "kind": "user",
    "methods": {},
    "version": 1
  }
}